:040000007EEF7DF022
:10F9840001000000F28EF28C1200810ED56E12007E
:10F9940026EC7EF0FFD79A0EB56E8C0E2E6FA984DE
:10F9A400A694608412004EC063FF4DC062FF7F9E28
:10F9B4007F9C7F80615012004EC063FF4DC062FF88
:10F9C4004FC061FF7F9E7F9C7F84A698550E7E6EFC
:10F9D400AA0E7E6E7F82A6A8FED77F94120050C026
:10F9E4004DF051C04EF053C04FF0DEEC7CF0504A65
:10F9F400512A50C04DF051C04EF052C04FF0DEECD1
:10FA04007CF01200010E556E55C04DF05550600F3C
:10FA1400D96EDA6ADF504E6E010E4F6E030EAFECF4
:10FA24007EF0552A080E5564EFD71200000E296E99
:10FA340086A008D086A203D0000E296E1200010E03
:10FA4400296E120086A204D0030E296E979A120022
:10FA5400020E296E120081A003D0F19C000E02D088
:10FA6400F18C010E276EF288380EF112F192380EE5
:10FA7400F06E000E3C6E000E3B6E000E266E120001
:10FA8400010E556E5550375CD8A00AD055C04DF0C4
:10FA9400010E4E6E010E4F6E010EAFEC7EF009D0DA
:10FAA40055C04DF0000E4E6E000E4F6E010EAFECC1
:10FAB4007EF0552A080E5564E5D71200010E556EE6
:10FAC4005550395CD8A00AD055C04DF0010E4E6E89
:10FAD400010E4F6E020EAFEC7EF009D055C04DF012
:10FAE400000E4E6E000E4F6E020EAFEC7EF0552AE5
:10FAF400080E5564E5D71200840EF66EF90EF76E03
:10FB0400000EF86E00EE59F010EE04F00900F5CF87
:10FB1400EEFFE550E150FAE100EE60F0090EEE6A06
:10FB2400E806FDE100EE01F04C0EEE6AE806FDE1A8
:10FB34000001CAEF7CF04FC04DF050C04EF0D5EC40
:10FB44007CF0516E4F4A502A51C052F0536A4FC054
:10FB54004DF050C04EF0D5EC7CF0516E5250536EC7
:10FB6400526A52505110526E5350536E52C04FF05D
:10FB740053C050F01200000E896E0F0E926E000EEC
:10FB84008A6ECF0E936E000E8B6E000E946E8C6890
:10FB94009568000E8D6E000E966E000E0F01256F97
:10FBA400000E246F000E8E6E600E976E000E8F6E28
:10FBB4000F0E986E020E236F1200010E556E5550F3
:10FBC400395CD8A00ED055C04DF05550010FD96EF8
:10FBD400DA6ADF504E6E010E4F6E000EAFEC7EF00F
:10FBE40009D055C04DF0000E4E6E000E4F6E000E43
:10FBF400AFEC7EF0552A080E5564E1D71200000ED2
:10FC0400466E000E456E010E5D6E000E3F6E000ED8
:10FC1400446E7D0E5F6E0B0E746E070E766ED00E04
:10FC2400756EB884B794B6840A0E716E010E736E45
:10FC34002C0E726EB886B796B686000E7D6E000ED8
:10FC44007C6E210E7B6E1200720ED36E000E646EFB
:10FC5400D08EBDEC7DF0CDEC7CF0150E2C6FC7EC96
:10FC64007CF001EC7EF04CEC7EF018EC7DF037EC8F
:10FC74007FF0000E336E000E356E000E3E6E000EE9
:10FC84003D6E010E3A6E010E386E2DEC7DF0C4EC23
:10FC94007CF01200000E216E000E206E000E4C6EE1
:10FCA400000E4A6E000E4B6E000E496E000E486E3A
:10FCB400000E476E0A0E0001696F050E5E6E000E9F
:10FCC4001F6E000E1E6E000E1D6E000E1C6E000ECA
:10FCD4001B6E000E1A6E0B0E776E030E796EE80E15
:10FCE400786EB892B792B682010EB36EF40EB26E0D
:10FCF400210EB16E1200516E010E536E51C052F0BE
:10FD040052C04FF053C050F04F2A02D0D890503612
:10FD14004F2EFCD75050536E4D50D8B417D04E5080
:10FD2400D8B40ED053504512465053140009D8B4D9
:10FD340003D0000E446E01D044687D0E5F6E03D084
:10FD44005350FF0A45165350461212005350FF0AEF
:10FD540046165350FF0A45161200526E52C053F015
:10FD6400040E4D6442D0040E4D5E010E546E4DC01F
:10FD740050F0FF0E502654C051F0502A02D0D890B3
:10FD84005136502EFCD75150546E4E50D8B41AD020
:10FD94005350120FD96EDA6A5450DF124F50D8B450
:10FDA40007D053500A0FD96EDA6A5450DF1212008A
:10FDB4005450FF0A506E53500A0FD96EDA6A5050ED
:10FDC400DF1612005450FF0A506E5350120FD96EB2
:10FDD400DA6A5050DF165450FF0A506E53500A0F1F
:10FDE400D96EDA6A5050DF161200010E546E4DC0FF
:10FDF40050F0FF0E502654C051F0502A02D0D89033
:10FE04005136502EFCD75150546E4E50D8B41AD09F
:10FE14005350160FD96EDA6A5450DF124F50D8B4CB
:10FE240007D053500E0FD96EDA6A5450DF12120005
:10FE34005450FF0A506E53500E0FD96EDA6A505068
:10FE4400DF1612005450FF0A506E5350160FD96E2D
:10FE5400DA6A5050DF165450FF0A506E53500E0F9A
:10FE6400D96EDA6A5050DF161200000E506E000E82
:10FE74004F6E9DEC7DF04FC056F050C057F05A0EB7
:10FE8400561804E1A50E5718D8B44CD0000E516E84
:10FE9400000E506EA50E536E5A0E526EF1EC7CF0AD
:10FEA400000E586E020E58244D6E4E6A000E4E22FD
:10FEB400010E4F6EDEEC7CF00A0E58244D6E4E6A35
:10FEC400000E4E22010E4F6EDEEC7CF0582A070E17
:10FED4005864E8D7000E4E6E120E4D6E080E4F6E2B
:10FEE400DEEC7CF0000E4E6E130E4D6E010E4F6E66
:10FEF400DEEC7CF0000E4E6E140E4D6E010E4F6E55
:10FF0400DEEC7CF0000E4E6E150E4D6E010E4F6E43
:10FF1400DEEC7CF0000E4E6E160E4D6E010E4F6E32
:10FF2400DEEC7CF0000E586E5850020FD96EDA6A7F
:10FF3400020E58244D6E4E6A000E4E22D5EC7CF013
:10FF4400DF6E5850610FD96EDA6A0A0E58244D6E6E
:10FF54004E6A000E4E22D5EC7CF0DF6E582A070E56
:10FF64005864E2D7000E4E6E120E4D6ED5EC7CF046
:10FF7400396E000E4E6E130E4D6ED5EC7CF0376E5E
:10FF8400000E4E6E140E4D6ED5EC7CF02F6E000EEE
:10FF94004E6E150E4D6ED5EC7CF02E6E000E4E6E30
:10FFA400160E4D6ED5EC7CF02C6E000E316E000EEC
:10FFB400306EDFEC7DF004EC7DF060EC7DF042EC23
:10FFC4007DF0000E4D6E000E4E6E000E7DEC7EF048
:10FFD4002FC04DF0000E4E6E010E7DEC7EF02EC053
:10FFE4004DF0000E4E6E020E7DEC7EF02CC04DF0F6
:0CFFF400000E4E6E030E7DEC7EF012003D
:020000040030CA
:080000001408767C018891FFD1
:00000001FF
