:0400000081EF7DF01F
:10F98A0001000000F28EF28C1200810ED56E120078
:10F99A0004EC7EF0FFD79A0EB56E8C0E2E6FA984FA
:10F9AA00A694608412004CC063FF4BC062FF7F9E26
:10F9BA007F9C7F80615012004CC063FF4BC062FF86
:10F9CA004DC061FF7F9E7F9C7F84A698550E7E6EF8
:10F9DA00AA0E7E6E7F82A6A8FED77F9412004EC022
:10F9EA004BF04FC04CF051C04DF0E1EC7CF04E4A68
:10F9FA004F2A4EC04BF04FC04CF050C04DF0E1ECD6
:10FA0A007CF01200010E536E53C04BF05350600F3E
:10FA1A00D96EDA6ADF504C6E010E4D6E030EAFECF2
:10FA2A007EF0532A080E5364EFD71200000E296E97
:10FA3A0086A008D086A203D0000E296E1200010EFD
:10FA4A00296E120086A204D0030E296E979A12001C
:10FA5A00020E296E120081A003D0F19C000E02D082
:10FA6A00F18C010E276EF288380EF112F192380EDF
:10FA7A00F06E000E3B6E000E3A6E000E266E1200FD
:10FA8A00010E536E5350365CD8A00AD053C04BF0C7
:10FA9A00010E4C6E010E4D6E010EAFEC7EF009D0D8
:10FAAA0053C04BF0000E4C6E000E4D6E010EAFECC3
:10FABA007EF0532A080E5364E5D71200010E536EE6
:10FACA005350385CD8A00AD053C04BF0010E4C6E8C
:10FADA00010E4D6E020EAFEC7EF009D053C04BF012
:10FAEA00000E4C6E000E4D6E020EAFEC7EF0532AE5
:10FAFA00080E5364E5D712008A0EF66EF90EF76EF9
:10FB0A00000EF86E00EE5BF010EE04F00900F5CF7F
:10FB1A00EEFFE550E150FAE100EE60F0090EEE6A00
:10FB2A00E806FDE100EE01F04A0EEE6AE806FDE1A4
:10FB3A000001CDEF7CF04DC04BF04EC04CF0D8EC3C
:10FB4A007CF04F6E4D4A4E2A4FC050F0516A4DC05C
:10FB5A004BF04EC04CF0D8EC7CF04F6E5050516ECA
:10FB6A00506A50504F10506E5150516E50C04DF067
:10FB7A0051C04EF01200000E896E0F0E926E000EEA
:10FB8A008A6ECF0E936E000E8B6E000E946E8C688A
:10FB9A009568000E8D6E000E966E000E0F01256F91
:10FBAA00000E246F000E8E6E600E976E000E8F6E22
:10FBBA000F0E986E020E236F1200010E536E5350F1
:10FBCA00385CD8A00ED053C04BF05350010FD96EF9
:10FBDA00DA6ADF504C6E010E4D6E000EAFEC7EF00D
:10FBEA0009D053C04BF0000E4C6E000E4D6E000E45
:10FBFA00AFEC7EF0532A080E5364E1D71200720E5E
:10FC0A00D36E000E646ED08EC0EC7DF0D0EC7CF02A
:10FC1A00150E2C6FCAEC7CF028EC7EF04DEC7EF0D1
:10FC2A001BEC7DF037EC7FF0000E326E000E346E66
:10FC3A00000E3C6E010E396E010E376E30EC7DF00F
:10FC4A00C7EC7CF01200000E446E000E436E010EEB
:10FC5A00586E000E3D6E000E426E7D0E5A6E0B0EF1
:10FC6A00746E070E766ED00E756EB884B794B6842D
:10FC7A000A0E716E010E736E2C0E726EB886B796EE
:10FC8A00B686000E7D6E000E7C6E210E7B6E120013
:10FC9A00000E216E000E206E000E4A6E000E486E97
:10FCAA00000E496E000E476E000E466E000E456E3F
:10FCBA000A0E576E050E596E000E1F6E000E1E6E4E
:10FCCA00000E1D6E000E1C6E000E1B6E000E1A6ECC
:10FCDA000B0E776E030E796EE80E786EB892B792B5
:10FCEA00B682010EB36EF40EB26E210EB16E120020
:10FCFA004F6E010E516E4FC050F050C04DF051C0C2
:10FD0A004EF04D2A02D0D8904E364D2EFCD74E508A
:10FD1A00516E4B50D8B417D04C50D8B40ED0515065
:10FD2A004312445051140009D8B403D0000E426E55
:10FD3A0001D042687D0E5A6E03D05150FF0A431615
:10FD4A005150441212005150FF0A44165150FF0AF2
:10FD5A0043161200506E50C051F0040E4B6442D04C
:10FD6A00040E4B5E010E526E4BC04EF0FF0E4E2635
:10FD7A0052C04FF04E2A02D0D8904F364E2EFCD7A2
:10FD8A004F50526E4C50D8B41AD05150120FD96EEF
:10FD9A00DA6A5250DF124D50D8B407D051500A0FC8
:10FDAA00D96EDA6A5250DF1212005250FF0A4E6EB2
:10FDBA0051500A0FD96EDA6A4E50DF1612005250AD
:10FDCA00FF0A4E6E5150120FD96EDA6A4E50DF1684
:10FDDA005250FF0A4E6E51500A0FD96EDA6A4E50CF
:10FDEA00DF161200010E526E4BC04EF0FF0E4E2669
:10FDFA0052C04FF04E2A02D0D8904F364E2EFCD722
:10FE0A004F50526E4C50D8B41AD05150160FD96E6A
:10FE1A00DA6A5250DF124D50D8B407D051500E0F43
:10FE2A00D96EDA6A5250DF1212005250FF0A4E6E31
:10FE3A0051500E0FD96EDA6A4E50DF161200525028
:10FE4A00FF0A4E6E5150160FD96EDA6A4E50DF16FF
:10FE5A005250FF0A4E6E51500E0FD96EDA6A4E504A
:10FE6A00DF161200000E4E6E000E4D6EA0EC7DF0F5
:10FE7A004DC054F04EC055F05A0E541804E1A50E68
:10FE8A005518D8B44CD0000E4F6E000E4E6EA50E0B
:10FE9A00516E5A0E506EF4EC7CF0000E566E020E45
:10FEAA0056244B6E4C6A000E4C22010E4D6EE1EC4C
:10FEBA007CF00A0E56244B6E4C6A000E4C22010E40
:10FECA004D6EE1EC7CF0562A070E5664E8D7000E18
:10FEDA004C6E120E4B6E080E4D6EE1EC7CF0000E6D
:10FEEA004C6E130E4B6E010E4D6EE1EC7CF0000E63
:10FEFA004C6E140E4B6E010E4D6EE1EC7CF0000E52
:10FF0A004C6E150E4B6E010E4D6EE1EC7CF0000E40
:10FF1A004C6E160E4B6E010E4D6EE1EC7CF0000E2F
:10FF2A00566E5650020FD96EDA6A020E56244B6E7E
:10FF3A004C6A000E4C22D8EC7CF0DF6E5650610FF2
:10FF4A00D96EDA6A0A0E56244B6E4C6A000E4C229F
:10FF5A00D8EC7CF0DF6E562A070E5664E2D7000E04
:10FF6A004C6E120E4B6ED8EC7CF0386E000E4C6E56
:10FF7A00130E4B6ED8EC7CF0366E000E4C6E140EDF
:10FF8A004B6ED8EC7CF02E6E000E4C6E150E4B6E3E
:10FF9A00D8EC7CF02D6E000E4C6E160E4B6ED8EC23
:10FFAA007CF02C6E000E306E000E2F6EE2EC7DF0AF
:10FFBA0007EC7DF063EC7DF045EC7DF0000E4B6EB6
:10FFCA00000E4C6E000E7DEC7EF02EC04BF0000E43
:10FFDA004C6E010E7DEC7EF02DC04BF0000E4C6E87
:10FFEA00020E7DEC7EF02CC04BF0000E4C6E030E20
:06FFFA007DEC7EF0120018
:020000040030CA
:080000001408767C018891FFD1
:00000001FF
